{
  "_format": "hh-sol-artifact-1",
  "contractName": "ProductRegistry",
  "sourceName": "contracts/ProductRegistry.sol",
  "abi": [
    {
      "anonymous": false,
      "inputs": [
        {
          "indexed": false,
          "internalType": "string",
          "name": "productId",
          "type": "string"
        },
        {
          "indexed": false,
          "internalType": "string",
          "name": "name",
          "type": "string"
        },
        {
          "indexed": false,
          "internalType": "string",
          "name": "manufacturer",
          "type": "string"
        },
        {
          "indexed": false,
          "internalType": "string",
          "name": "date",
          "type": "string"
        },
        {
          "indexed": false,
          "internalType": "string",
          "name": "batchNo",
          "type": "string"
        }
      ],
      "name": "ProductAdded",
      "type": "event"
    },
    {
      "inputs": [
        {
          "internalType": "string",
          "name": "_productId",
          "type": "string"
        },
        {
          "internalType": "string",
          "name": "_name",
          "type": "string"
        },
        {
          "internalType": "string",
          "name": "_manufacturer",
          "type": "string"
        },
        {
          "internalType": "string",
          "name": "_date",
          "type": "string"
        },
        {
          "internalType": "string",
          "name": "_batchNo",
          "type": "string"
        }
      ],
      "name": "addProduct",
      "outputs": [],
      "stateMutability": "nonpayable",
      "type": "function"
    },
    {
      "inputs": [],
      "name": "getAllProductIds",
      "outputs": [
        {
          "internalType": "string[]",
          "name": "",
          "type": "string[]"
        }
      ],
      "stateMutability": "view",
      "type": "function"
    },
    {
      "inputs": [
        {
          "internalType": "string",
          "name": "productId",
          "type": "string"
        }
      ],
      "name": "getProduct",
      "outputs": [
        {
          "internalType": "string",
          "name": "",
          "type": "string"
        },
        {
          "internalType": "string",
          "name": "",
          "type": "string"
        },
        {
          "internalType": "string",
          "name": "",
          "type": "string"
        },
        {
          "internalType": "string",
          "name": "",
          "type": "string"
        },
        {
          "internalType": "string",
          "name": "",
          "type": "string"
        },
        {
          "internalType": "bool",
          "name": "",
          "type": "bool"
        }
      ],
      "stateMutability": "view",
      "type": "function"
    },
    {
      "inputs": [
        {
          "internalType": "uint256",
          "name": "",
          "type": "uint256"
        }
      ],
      "name": "productIds",
      "outputs": [
        {
          "internalType": "string",
          "name": "",
          "type": "string"
        }
      ],
      "stateMutability": "view",
      "type": "function"
    }
  ],
  "bytecode": "0x6080604052348015600f57600080fd5b506111368061001f6000396000f3fe608060405234801561001057600080fd5b506004361061004c5760003560e01c8063663c01af1461005157806368111cce1461006f578063cb51bba9146100a4578063ef6da8d4146100d4575b600080fd5b6100596100f0565b60405161006691906108c4565b60405180910390f35b61008960048036038101906100849190610a2f565b6101c9565b60405161009b96959493929190610add565b60405180910390f35b6100be60048036038101906100b99190610b97565b61056c565b6040516100cb9190610bc4565b60405180910390f35b6100ee60048036038101906100e99190610be6565b610618565b005b60606001805480602002602001604051908101604052809291908181526020016000905b828210156101c057838290600052602060002001805461013390610d1c565b80601f016020809104026020016040519081016040528092919081815260200182805461015f90610d1c565b80156101ac5780601f10610181576101008083540402835291602001916101ac565b820191906000526020600020905b81548152906001019060200180831161018f57829003601f168201915b505050505081526020019060010190610114565b50505050905090565b60608060608060606000806000886040516101e49190610d89565b90815260200160405180910390206040518060c001604052908160008201805461020d90610d1c565b80601f016020809104026020016040519081016040528092919081815260200182805461023990610d1c565b80156102865780601f1061025b57610100808354040283529160200191610286565b820191906000526020600020905b81548152906001019060200180831161026957829003601f168201915b5050505050815260200160018201805461029f90610d1c565b80601f01602080910402602001604051908101604052809291908181526020018280546102cb90610d1c565b80156103185780601f106102ed57610100808354040283529160200191610318565b820191906000526020600020905b8154815290600101906020018083116102fb57829003601f168201915b5050505050815260200160028201805461033190610d1c565b80601f016020809104026020016040519081016040528092919081815260200182805461035d90610d1c565b80156103aa5780601f1061037f576101008083540402835291602001916103aa565b820191906000526020600020905b81548152906001019060200180831161038d57829003601f168201915b505050505081526020016003820180546103c390610d1c565b80601f01602080910402602001604051908101604052809291908181526020018280546103ef90610d1c565b801561043c5780601f106104115761010080835404028352916020019161043c565b820191906000526020600020905b81548152906001019060200180831161041f57829003601f168201915b5050505050815260200160048201805461045590610d1c565b80601f016020809104026020016040519081016040528092919081815260200182805461048190610d1c565b80156104ce5780601f106104a3576101008083540402835291602001916104ce565b820191906000526020600020905b8154815290600101906020018083116104b157829003601f168201915b505050505081526020016005820160009054906101000a900460ff16151515158152505090508060a00151610538576040517f08c379a000000000000000000000000000000000000000000000000000000000815260040161052f90610dec565b60405180910390fd5b806000015181602001518260400151836060015184608001518560a001519650965096509650965096505091939550919395565b6001818154811061057c57600080fd5b90600052602060002001600091509050805461059790610d1c565b80601f01602080910402602001604051908101604052809291908181526020018280546105c390610d1c565b80156106105780601f106105e557610100808354040283529160200191610610565b820191906000526020600020905b8154815290600101906020018083116105f357829003601f168201915b505050505081565b6040518060c00160405280868152602001858152602001848152602001838152602001828152602001600115158152506000866040516106589190610d89565b9081526020016040518091039020600082015181600001908161067b9190610fb8565b5060208201518160010190816106919190610fb8565b5060408201518160020190816106a79190610fb8565b5060608201518160030190816106bd9190610fb8565b5060808201518160040190816106d39190610fb8565b5060a08201518160050160006101000a81548160ff02191690831515021790555090505060018590806001815401808255809150506001900390600052602060002001600090919091909150908161072b9190610fb8565b507f97ba23f44241abd88615d522776289b8619bcda4bf217bf91d2f9500e2b45b7f858585858560405161076395949392919061108a565b60405180910390a15050505050565b600081519050919050565b600082825260208201905092915050565b6000819050602082019050919050565b600081519050919050565b600082825260208201905092915050565b60005b838110156107d85780820151818401526020810190506107bd565b60008484015250505050565b6000601f19601f8301169050919050565b60006108008261079e565b61080a81856107a9565b935061081a8185602086016107ba565b610823816107e4565b840191505092915050565b600061083a83836107f5565b905092915050565b6000602082019050919050565b600061085a82610772565b610864818561077d565b9350836020820285016108768561078e565b8060005b858110156108b25784840389528151610893858261082e565b945061089e83610842565b925060208a0199505060018101905061087a565b50829750879550505050505092915050565b600060208201905081810360008301526108de818461084f565b905092915050565b6000604051905090565b600080fd5b600080fd5b600080fd5b600080fd5b7f4e487b7100000000000000000000000000000000000000000000000000000000600052604160045260246000fd5b61093c826107e4565b810181811067ffffffffffffffff8211171561095b5761095a610904565b5b80604052505050565b600061096e6108e6565b905061097a8282610933565b919050565b600067ffffffffffffffff82111561099a57610999610904565b5b6109a3826107e4565b9050602081019050919050565b82818337600083830152505050565b60006109d26109cd8461097f565b610964565b9050828152602081018484840111156109ee576109ed6108ff565b5b6109f98482856109b0565b509392505050565b600082601f830112610a1657610a156108fa565b5b8135610a268482602086016109bf565b91505092915050565b600060208284031215610a4557610a446108f0565b5b600082013567ffffffffffffffff811115610a6357610a626108f5565b5b610a6f84828501610a01565b91505092915050565b600082825260208201905092915050565b6000610a948261079e565b610a9e8185610a78565b9350610aae8185602086016107ba565b610ab7816107e4565b840191505092915050565b60008115159050919050565b610ad781610ac2565b82525050565b600060c0820190508181036000830152610af78189610a89565b90508181036020830152610b0b8188610a89565b90508181036040830152610b1f8187610a89565b90508181036060830152610b338186610a89565b90508181036080830152610b478185610a89565b9050610b5660a0830184610ace565b979650505050505050565b6000819050919050565b610b7481610b61565b8114610b7f57600080fd5b50565b600081359050610b9181610b6b565b92915050565b600060208284031215610bad57610bac6108f0565b5b6000610bbb84828501610b82565b91505092915050565b60006020820190508181036000830152610bde8184610a89565b905092915050565b600080600080600060a08688031215610c0257610c016108f0565b5b600086013567ffffffffffffffff811115610c2057610c1f6108f5565b5b610c2c88828901610a01565b955050602086013567ffffffffffffffff811115610c4d57610c4c6108f5565b5b610c5988828901610a01565b945050604086013567ffffffffffffffff811115610c7a57610c796108f5565b5b610c8688828901610a01565b935050606086013567ffffffffffffffff811115610ca757610ca66108f5565b5b610cb388828901610a01565b925050608086013567ffffffffffffffff811115610cd457610cd36108f5565b5b610ce088828901610a01565b9150509295509295909350565b7f4e487b7100000000000000000000000000000000000000000000000000000000600052602260045260246000fd5b60006002820490506001821680610d3457607f821691505b602082108103610d4757610d46610ced565b5b50919050565b600081905092915050565b6000610d638261079e565b610d6d8185610d4d565b9350610d7d8185602086016107ba565b80840191505092915050565b6000610d958284610d58565b915081905092915050565b7f50726f6475637420646f6573206e6f7420657869737400000000000000000000600082015250565b6000610dd6601683610a78565b9150610de182610da0565b602082019050919050565b60006020820190508181036000830152610e0581610dc9565b9050919050565b60008190508160005260206000209050919050565b60006020601f8301049050919050565b600082821b905092915050565b600060088302610e6e7fffffffffffffffffffffffffffffffffffffffffffffffffffffffffffffffff82610e31565b610e788683610e31565b95508019841693508086168417925050509392505050565b6000819050919050565b6000610eb5610eb0610eab84610b61565b610e90565b610b61565b9050919050565b6000819050919050565b610ecf83610e9a565b610ee3610edb82610ebc565b848454610e3e565b825550505050565b600090565b610ef8610eeb565b610f03818484610ec6565b505050565b5b81811015610f2757610f1c600082610ef0565b600181019050610f09565b5050565b601f821115610f6c57610f3d81610e0c565b610f4684610e21565b81016020851015610f55578190505b610f69610f6185610e21565b830182610f08565b50505b505050565b600082821c905092915050565b6000610f8f60001984600802610f71565b1980831691505092915050565b6000610fa88383610f7e565b9150826002028217905092915050565b610fc18261079e565b67ffffffffffffffff811115610fda57610fd9610904565b5b610fe48254610d1c565b610fef828285610f2b565b600060209050601f8311600181146110225760008415611010578287015190505b61101a8582610f9c565b865550611082565b601f19841661103086610e0c565b60005b8281101561105857848901518255600182019150602085019450602081019050611033565b868310156110755784890151611071601f891682610f7e565b8355505b6001600288020188555050505b505050505050565b600060a08201905081810360008301526110a48188610a89565b905081810360208301526110b88187610a89565b905081810360408301526110cc8186610a89565b905081810360608301526110e08185610a89565b905081810360808301526110f48184610a89565b9050969550505050505056fea26469706673582212209c04d85701bc803c4210faceec0c74b8593de5fd9fb1194d6ab2099bc7c34b1864736f6c634300081c0033",
  "linkReferences": {},
  "deployedLinkReferences": {}
}